:100000000C9483000C94B4000C94B4000C94B400D1
:100010000C94B4000C94B4000C94B4000C94B40090
:100020000C94B4000C94AE020C94B4000C94B40084
:100030000C94B4000C94B4000C94B4000C94B40070
:100040000C94B4000C94B4000C94B4000C94B40060
:100050000C94B4000C94B4000C94B4000C94B40050
:100060000C94B4000C9478020C944E020C94B400DE
:100070000C94B4000C94B4000C94B4000C94B40030
:100080000C94B4000C94B4000C94B4000C94B40020
:100090000C94B4000C94B4000C94B4000C94B40010
:1000A0000C94B4000C94B4000C94B4000C94B40000
:1000B0000C94B4000C94B4000C94B4000C94B400F0
:1000C0000C94B4000C94B4000C94B4000C94B400E0
:1000D0000C94B4000C94B4000C94B4000C94B400D0
:1000E0000C94B4000C9414010C94B6000C948F0181
:1000F0000C94F2000C94D1020C9406010C94E300D1
:100100000C944201D10211241FBECFEFD1E2DEBF19
:10011000CDBF00E00CBF12E0A0E0B2E0E0E8FBE001
:1001200000E00BBF02C007900D92A831B107D9F7CC
:1001300022E0A8E1B2E001C01D92A93BB207E1F7BD
:1001400010E0C3E8D0E000E006C021970109802F4D
:10015000FE010E941804C238D10780E00807A9F701
:100160000E94FE020C94BE050C940000AF92BF9258
:10017000CF92DF92EF92FF920F931F93CF93DF9373
:100180006C017B018B01040F151FEB015E01AE18A2
:10019000BF08C017D10759F06991D601ED91FC91C4
:1001A0000190F081E02DC6011995892B79F7C501E1
:1001B000DF91CF911F910F91FF90EF90DF90CF9043
:1001C000BF90AF900895FC01538D448D252F30E0F2
:1001D000842F90E0821B930B541710F0CF96089554
:1001E00001970895FC01918D828D981761F0A28D81
:1001F000AE0FBF2FB11D5D968C91928D9F5F9F7347
:10020000928F90E008958FEF9FEF0895FC01918DFC
:10021000828D981731F0828DE80FF11D858D90E069
:1002200008958FEF9FEF0895FC01918D228D892F06
:1002300090E0805C9F4F821B91098F7399270895EE
:10024000FC01A48DA80FB92FB11DA35ABF4F2C914B
:10025000848D90E001968F739927848FA689B78942
:100260002C93A089B1898C91837080648C93938D39
:10027000848D981306C00288F389E02D80818F7DDC
:1002800080830895EF92FF920F931F93CF93DF9394
:10029000EC0181E0888F9B8D8C8D98131AC0E889C2
:1002A000F989808185FF15C09FB7F894EE89FF8991
:1002B0006083E889F98980818370806480839FBF2F
:1002C00081E090E0DF91CF911F910F91FF90EF902F
:1002D0000895F62E0B8D10E00F5F1F4F0F7311273F
:1002E000E02E8C8D8E110CC00FB607FCFACFE8897A
:1002F000F989808185FFF5CFCE010E942001F1CFE1
:10030000EB8DEC0FFD2FF11DE35AFF4FF0829FB7ED
:10031000F8940B8FEA89FB8980818062CFCFCF93DD
:10032000DF93EC01888D8823B9F0AA89BB89E8891D
:10033000F9898C9185FD03C0808186FD0DC00FB6C3
:1003400007FCF7CF8C9185FFF2CF808185FFEDCF41
:10035000CE010E942001E9CFDF91CF910895FC01E9
:1003600001900020E9F73197AF01481B590BBC0100
:100370008CE192E00C94B6008F929F92AF92BF9264
:100380000F931F93CF93DF93CDB7DEB7A1970FB62F
:10039000F894DEBF0FBECDBF19A2423008F44AE088
:1003A0008E010F5D1F4F842E912CB12CA12CA50125
:1003B00094010E94E203E62FB901CA01EA30F4F485
:1003C000E05DD801EE938D01232B242B252B79F7AB
:1003D00090E080E0109719F0CD010E94AF01A19646
:1003E0000FB6F894DEBF0FBECDBFDF91CF911F9146
:1003F0000F91BF90AF909F908F900895E95CE1CFEF
:100400008F929F92AF92BF92CF92DF92EF92FF9224
:10041000BC0190E080E00E94C3042FE632E143E893
:100420005AE30E94510520E034E244E758E40E9478
:10043000510520E030E040E85FE30E9420040E9484
:100440008D044B016B01770FEE08FF084AE0C701EE
:10045000B601F7FE0DC06DE28CE192E00E94420110
:1004600066277727CB016C197D098E099F094AE021
:100470000E94BC0184E192E00E94AF0187BC96B566
:1004800087B5981710F4A99AFACFFF90EF90DF90F4
:10049000CF90BF90AF909F908F9008951F920F9232
:1004A0000FB60F9211240BB60F922F933F934F93D9
:1004B0005F936F937F938F939F93AF93BF93EF93CC
:1004C000FF938CE192E00E942001FF91EF91BF9198
:1004D000AF919F918F917F916F915F914F913F91DC
:1004E0002F910F900BBE0F900FBE0F901F9018957D
:1004F0001F920F920FB60F9211240BB60F922F93EB
:100500008F939F93EF93FF93E0912C02F0912D0234
:100510008081E0913202F091330282FD1DC0908112
:10052000809135028F5F8F7320913602821741F0E0
:10053000E0913502F0E0E45EFD4F958F8093350247
:10054000FF91EF919F918F912F910F900BBE0F9084
:100550000FBE0F901F9018958081F2CF1F920F92BF
:100560000FB60F9211248F939F9380911A0290914E
:100570001B02892B69F481E090E090931B02809329
:100580001A029F918F910F900FBE0F901F90189598
:1005900080911A0290911B02029799F783E090E0F4
:1005A000ECCFECE1F2E01382128288EE93E0A0E05F
:1005B000B0E084839583A683B78386E092E091833D
:1005C000808385EC90E09587848784EC90E0978722
:1005D000868780EC90E0918B808B81EC90E0938B10
:1005E000828B82EC90E0958B848B86EC90E0978BED
:1005F000868B118E128E138E148E0895E0912C022C
:10060000F0912D0282E08083E0912802F09129028E
:100610001082E0912A02F0912B028FEC80831092DD
:100620003402E0913002F091310286E08083E09163
:100630002E02F0912F02808180618083E0912E0252
:10064000F0912F02808188608083E0912E02F091EA
:100650002F02808180688083E0912E02F0912F022A
:1006600080818F7D80832B9A2398809168008160A0
:100670008093680080916B008C6080936B0084B5E0
:100680008E7F84BD84B5826084BD84B5877F84BD40
:1006900085B5816085BD85B58D7F85BD85B5846057
:1006A00085BD8CE987BD16BC089A099A0A9A0B9AEF
:1006B000609100027091010284E690E00E94CE03F6
:1006C000CB010E94000204E610E0C2E0D0E0AA24C0
:1006D000A394B12C6091000270910102C8010E94A4
:1006E000CE03CB010E940002809118029091190262
:1006F000019690931902809318022091180230916C
:10070000190282B1807F2F70822B82B980911A02E8
:1007100090911B028130910589F10397D9F6C09021
:100720000002D09001020D2C000CEE08FF084AE0F8
:10073000C701B601F7FE0DC06DE28CE192E00E94A8
:10074000420166277727CB016C197D098E099F0925
:100750004AE00E94BC0184E192E00E94AF018091D6
:10076000000290910102019771F4D0930102C093AD
:10077000000210921B0210921A02ACCFD0931B02FF
:10078000C0931A02A7CF80910002909101020297B4
:1007900081F7B0920102A0920002EBCF97FB072EE7
:1007A00016F4009407D077FD09D00E94040407FCDA
:1007B00005D03EF4909581959F4F08957095619571
:1007C0007F4F0895A1E21A2EAA1BBB1BFD010DC08D
:1007D000AA1FBB1FEE1FFF1FA217B307E407F507F1
:1007E00020F0A21BB30BE40BF50B661F771F881FCD
:1007F000991F1A9469F760957095809590959B0163
:10080000AC01BD01CF010895AA1BBB1B51E107C07C
:10081000AA1FBB1FA617B70710F0A61BB70B881F90
:10082000991F5A95A9F780959095BC01CD0108951F
:10083000EE0FFF1F881F8BBF0790F691E02D1994D4
:100840005058BB27AA270E9438040C9417050E9411
:10085000090538F00E94100520F039F49F3F19F483
:1008600026F40C9406050EF4E095E7FB0C940005C5
:10087000E92F0E94280558F3BA1762077307840707
:10088000950720F079F4A6F50C944A050EF4E0954E
:100890000B2EBA2FA02D0B01B90190010C01CA013A
:1008A000A0011124FF27591B99F0593F50F4503EE5
:1008B00068F11A16F040A22F232F342F4427585FD7
:1008C000F3CF469537952795A795F0405395C9F7EF
:1008D0007EF41F16BA0B620B730B840BBAF09150A7
:1008E000A1F0FF0FBB1F661F771F881FC2F70EC046
:1008F000BA0F621F731F841F48F487957795679519
:10090000B795F7959E3F08F0B0CF9395880F08F004
:100910009927EE0F9795879508950E9494046894FF
:10092000B1110C944B0508950E94300588F09F5733
:1009300098F0B92F9927B751B0F0E1F0660F771F03
:10094000881F991F1AF0BA95C9F714C0B13091F0F9
:100950000E944A05B1E008950C944A05672F782F4C
:100960008827B85F39F0B93FCCF3869577956795BE
:10097000B395D9F73EF490958095709561957F4F2A
:100980008F4F9F4F0895E89409C097FB3EF49095D0
:100990008095709561957F4F8F4F9F4F9923A9F058
:1009A000F92F96E9BB279395F695879577956795E7
:1009B000B795F111F8CFFAF4BB0F11F460FF1BC02B
:1009C0006F5F7F4F8F4F9F4F16C0882311F096E9BE
:1009D00011C0772321F09EE8872F762F05C066236C
:1009E00071F096E8862F70E060E02AF09A95660F25
:1009F000771F881FDAF7880F9695879597F90895DE
:100A000097F99F6780E870E060E008959FEF80ECC1
:100A1000089500240A941616170618060906089564
:100A200000240A9412161306140605060895092ECA
:100A30000394000C11F4882352F0BB0F40F4BF2B39
:100A400011F460FF04C06F5F7F4F8F4F9F4F089579
:100A500057FD9058440F551F59F05F3F71F047956F
:100A6000880F97FB991F61F09F3F79F08795089554
:100A7000121613061406551FF2CF4695F1DF08C073
:100A8000161617061806991FF1CF86957105610590
:100A900008940895E894BB2766277727CB0197F938
:100AA00008950E9464050C9417050E94090538F00A
:100AB0000E94100520F0952311F00C9400050C9471
:100AC000060511240C944B050E94280570F3959F90
:100AD000C1F3950F50E0551F629FF001729FBB2735
:100AE000F00DB11D639FAA27F00DB11DAA1F649FD1
:100AF0006627B00DA11D661F829F2227B00DA11D84
:100B0000621F739FB00DA11D621F839FA00D611D09
:100B1000221F749F3327A00D611D231F849F600D2A
:100B2000211D822F762F6A2F11249F5750409AF053
:100B3000F1F088234AF0EE0FFF1FBB1F661F771FDF
:100B4000881F91505040A9F79E3F510580F00C94AA
:100B500000050C944B055F3FE4F3983ED4F3869573
:100B600077956795B795F795E7959F5FC1F7FE2B4A
:100B7000880F911D9695879597F90895F894FFCF62
:100B80000100000000004201B600E3008F011401E3
:080B9000F20006010D0A00004D
:00000001FF
