:100000000C9483000C94B4000C94B4000C94B400D1
:100010000C94B4000C94B4000C94B4000C94B40090
:100020000C94B4000C9428020C94B4000C94B4000A
:100030000C94B4000C94B4000C94B4000C94B40070
:100040000C94B4000C94B4000C94B4000C94B40060
:100050000C94B4000C94B4000C94B4000C94B40050
:100060000C94B4000C94F2010C94C8010C94B400EC
:100070000C94B4000C94B4000C94B4000C94B40030
:100080000C94B4000C94B4000C94B4000C94B40020
:100090000C94B4000C94B4000C94B4000C94B40010
:1000A0000C94B4000C94B4000C94B4000C94B40000
:1000B0000C94B4000C94B4000C94B4000C94B400F0
:1000C0000C94B4000C94B4000C94B4000C94B400E0
:1000D0000C94B4000C94B4000C94B4000C94B400D0
:1000E0000C94B4000C944B020C9414010C94B600C4
:1000F0000C948F010C94F2000C9406010C94E30014
:100100000C9442014B0211241FBECFEFD1E2DEBF9F
:10011000CDBF00E00CBF12E0A0E0B2E0E4ECF7E0FD
:1001200000E00BBF02C007900D92A831B107D9F7CC
:1001300022E0A8E1B2E001C01D92A93BB207E1F7BD
:1001400010E0C3E8D0E000E006C021970109802F4D
:10015000FE010E94D803C238D10780E00807A9F742
:100160000E9478020C94E0030C940000AF92BF92BE
:10017000CF92DF92EF92FF920F931F93CF93DF9373
:100180006C017B018B01040F151FEB015E01AE18A2
:10019000BF08C017D10759F06991D601ED91FC91C4
:1001A0000190F081E02DC6011995892B79F7C501E1
:1001B000DF91CF911F910F91FF90EF90DF90CF9043
:1001C000BF90AF900895FC01538D448D252F30E0F2
:1001D000842F90E0821B930B541710F0CF96089554
:1001E00001970895FC01918D828D981761F0A28D81
:1001F000AE0FBF2FB11D5D968C91928D9F5F9F7347
:10020000928F90E008958FEF9FEF0895FC01918DFC
:10021000828D981731F0828DE80FF11D858D90E069
:1002200008958FEF9FEF0895FC01918D228D892F06
:1002300090E0805C9F4F821B91098F7399270895EE
:10024000FC01A48DA80FB92FB11DA35ABF4F2C914B
:10025000848D90E001968F739927848FA689B78942
:100260002C93A089B1898C91837080648C93938D39
:10027000848D981306C00288F389E02D80818F7DDC
:1002800080830895EF92FF920F931F93CF93DF9394
:10029000EC0181E0888F9B8D8C8D98131AC0E889C2
:1002A000F989808185FF15C09FB7F894EE89FF8991
:1002B0006083E889F98980818370806480839FBF2F
:1002C00081E090E0DF91CF911F910F91FF90EF902F
:1002D0000895F62E0B8D10E00F5F1F4F0F7311273F
:1002E000E02E8C8D8E110CC00FB607FCFACFE8897A
:1002F000F989808185FFF5CFCE010E942001F1CFE1
:10030000EB8DEC0FFD2FF11DE35AFF4FF0829FB7ED
:10031000F8940B8FEA89FB8980818062CFCFCF93DD
:10032000DF93EC01888D8823B9F0AA89BB89E8891D
:10033000F9898C9185FD03C0808186FD0DC00FB6C3
:1003400007FCF7CF8C9185FFF2CF808185FFEDCF41
:10035000CE010E942001E9CFDF91CF910895AC0139
:1003600089EF87BD95B5936095BD95B59B7F95BD8C
:1003700030E020E02417350739F0A99A16BCA99B74
:10038000FECF2F5F3F4FF6CF85B5887F85BD08959F
:100390001F920F920FB60F9211240BB60F922F934C
:1003A0003F934F935F936F937F938F939F93AF93FD
:1003B000BF93EF93FF938CE192E00E942001FF91A5
:1003C000EF91BF91AF919F918F917F916F915F91CD
:1003D0004F913F912F910F900BBE0F900FBE0F903A
:1003E0001F9018951F920F920FB60F9211240BB603
:1003F0000F922F938F939F93EF93FF93E0912C0293
:10040000F0912D028081E0913202F091330282FD61
:100410001DC09081809135028F5F8F7320913602CD
:10042000821741F0E0913502F0E0E45EFD4F958FD8
:1004300080933502FF91EF919F918F912F910F90B3
:100440000BBE0F900FBE0F901F9018958081F2CFBA
:100450001F920F920FB60F9211248F939F9380914A
:100460001A0290911B02892B69F481E090E090932D
:100470001B0280931A029F918F910F900FBE0F90D5
:100480001F90189580911A0290911B02029799F77C
:1004900083E090E0ECCFECE1F2E01382128288EE90
:1004A00093E0A0E0B0E084839583A683B78386E0E1
:1004B00092E09183808385EC90E09587848784EC3B
:1004C00090E09787868780EC90E0918B808B81EC21
:1004D00090E0938B828B82EC90E0958B848B86EC02
:1004E00090E0978B868B118E128E138E148E08954A
:1004F000CF93DF93CDB7DEB7A1970FB6F894DEBFE9
:100500000FBECDBFE0912C02F0912D0282E08083DE
:10051000E0912802F09129021082E0912A02F091E4
:100520002B028FEC808310923402E0913002F09124
:10053000310286E08083E0912E02F0912F028081CB
:1005400080618083E0912E02F0912F02808188608B
:100550008083E0912E02F0912F0280818068808359
:10056000E0912E02F0912F0280818F7D80832B9A63
:1005700023988091680081608093680080916B006F
:10058000886080936B0084B58E7F84BD84B5826063
:1005900084BD85B5877F85BD089A099A0A9A0B9A0A
:1005A000609100027091010284E690E00E948E0347
:1005B000CB010E94AF0184E6C82ED12C92E0E92E37
:1005C000F12C22242394312C3AE0432E512C612C1F
:1005D000712C6091000270910102C6010E948E038D
:1005E000CB010E94AF01209118023091190282B113
:1005F000807F2F70822B82B980911A0290911B020A
:1006000081309105B1F00397C9F080911802909163
:1006100019020F9721F4109219021092180280917A
:100620001802909119020196909319028093180272
:10063000D0CFF0921B02E0921A02E7CF8090000226
:1006400090900102092C000CAA08BB08B7FE45C017
:100650006DE28CE192E00E94420122273327A9013A
:10066000281939094A095B0919A28E010F5D1F4F2C
:10067000CA01B901A30192010E94A203605DF801C1
:1006800062938F01211531054105510589F7011547
:10069000110561F001900020E9F73197AF01401B8F
:1006A000510BB8018CE192E00E94B60042E050E0AC
:1006B00064E172E08CE192E00E94B6008091000259
:1006C000909101020197F9F4F0920102E092000288
:1006D00010921B0210921A0298CFA501940119A240
:1006E0008E010F5D1F4FCA01B901A30192010E9443
:1006F000A203605DF80162938F0121153105410568
:10070000510589F7C4CF80910002909101020297B0
:10071000F9F63092010220920002DACF97FB072E01
:1007200016F4009407D077FD09D00E94C40307FC9B
:1007300005D03EF4909581959F4F089570956195F1
:100740007F4F0895A1E21A2EAA1BBB1BFD010DC00D
:10075000AA1FBB1FEE1FFF1FA217B307E407F50771
:1007600020F0A21BB30BE40BF50B661F771F881F4D
:10077000991F1A9469F760957095809590959B01E3
:10078000AC01BD01CF010895AA1BBB1B51E107C0FD
:10079000AA1FBB1FA617B70710F0A61BB70B881F11
:1007A000991F5A95A9F780959095BC01CD010895A0
:1007B000EE0FFF1F881F8BBF0790F691E02D199455
:0407C000F894FFCFDB
:1007C4000100000000004201B600E3008F011401A3
:0807D400F20006010D0A00000D
:00000001FF
